:020000040800F2
:10000000D806002089240008F1050008F30500083F
:10001000F7050008FB050008FF05000800000000C8
:1000200000000000000000000000000005060008BD
:100030000306000800000000070600080906000883
:100040000B0600080D0600080F0600081106000840
:100050001306000815060008170600081906000810
:100060001B0600081D0600081F06000821060008E0
:1000700023060008250600082706000829060008B0
:100080002B0600082D0600082F060008A3240008F0
:10009000A3240008A3240008A324000839060008AC
:1000A0003B0600083D0600083F0600084106000820
:1000B00043060008450600084706000849060008F0
:1000C0004B0600084D0600084F06000851060008C0
:1000D0005306000855060008570600085906000890
:1000E0005B0600085D0600085F06000800F002F8E5
:1000F00000F03EF80AA090E8000C82448344AAF184
:100100000107DA4501D100F033F8AFF2090EBAE881
:100110000F0013F0010F18BFFB1A43F0010318473B
:100120007829000098290000103A24BF78C878C1C7
:10013000FAD8520724BF30C830C144BF04680C60ED
:10014000704700000023002400250026103A28BF35
:1001500078C1FBD8520728BF30C148BF0B60704739
:100160001FB59DE8030002F07DFB1FBD10B510BD5B
:1001700002F006FC1146FFF7F3FF00F075F802F0FD
:1001800024FC03B4FFF7F2FF03BC02F055FC0000AF
:10019000F8B506460F46E54800904FF40061E44884
:1001A00000F07FFB0221E24800F07BFB394630463D
:1001B00001F0C2FD3946304601F0C7FD4FF4006141
:1001C000DB4800F06CFB0221D94800F068FB00BF5F
:1001D00001F03AFD044601F03CFD054604F0300014
:1001E00010B905F0300000B104E00098411E009104
:1001F0000028EDD100BF4FF40061CD4800F051FB65
:100200000221CB4800F04DFB009808B90220F8BD50
:10021000C8A001F059FF204601F004FFC6A001F07C
:1002200053FFC4A001F050FF284601F0FBFEC2A01E
:1002300001F04AFF01F016FA01F072FD04F010001F
:1002400010B905F0100008B10320E0E704F0200029
:1002500010B905F0200008B10120D8E701F00EFA2E
:1002600001F052FD0020D2E786B04FF4E13001F0FA
:100270003FFEB2A001F028FF0121880300F02BFD12
:100280000121082000F01AFD0121080300F016FDED
:100290000121042000F012FD10208DF8170002202B
:1002A0008DF816004002ADF8140005A9A04800F032
:1002B00049FA10208DF8170002208DF81600012051
:1002C000ADF8140005A99A4800F03CFA18208DF802
:1002D000170003208DF816004FF46040ADF81400AD
:1002E00005A9934800F02EFA18208DF81700032076
:1002F0008DF81600E020ADF8140005A9974800F02D
:1003000021FA4FF48270ADF802001820ADF80C000D
:100310000020ADF80000ADF80600ADF80800072099
:10032000ADF810000020ADF80400ADF80E004FF459
:100330000070ADF80A006946894800F04DFF4FF49F
:100340008071874801F023F80121854800F0E9FF1A
:100350004FF48270ADF802001820ADF80C000020B8
:10036000ADF80000ADF80600ADF808000720ADF8C4
:1003700010000020ADF80400ADF80E004FF400703E
:10038000ADF80A006946774800F026FF4FF4807107
:10039000744800F0FCFF0121724800F0C2FF01F038
:1003A00049FF01F01DFD01F042FD4FF4006160487E
:1003B00000F077FA02215E4800F073FA6AA001F0BB
:1003C00083FE01F000FA38B901F019FA20B96BA0E8
:1003D00001F07AFE00BFFEE76AA001F075FE01F0B1
:1003E00059F901F0A4F9FF2001F004FC732001F099
:1003F0008FFA202001F04EFB0C2001F069FA032057
:1004000001F0AAFA6149062001F0B6FA062001F0CF
:1004100025FB002001F03CFA01F024F9022001F054
:100420000AFAFF2001F0FBFB762001F078FA202089
:1004300001F03EFB0C2001F05BFA032001F094FA7E
:100440005349012001F0D2FA05220021012001F0D8
:1004500068FB012001F02CFA022001F0FEF90221D4
:10046000334800F01CFA00204A49086005204A4938
:10047000087059E000204949086009E054204849C3
:10048000464A1268885445480068401C4349086041
:1004900042480068404909788842EFD33E480178D5
:1004A0003F48FFF775FE3F4908700846007801286D
:1004B00004D0022806D003280CD107E03AA001F0AE
:1004C00003FE0BE039A001F0FFFD07E039A001F0C9
:1004D000FBFD03E03BA001F0F7FD00BF00BF28A03B
:1004E00001F0F2FD4FF4FA7001F0C7FE01F0CBFB12
:1004F000012819D02849354801F054FC34490870C6
:1005000001F00EFC33A001F0DFFD3148007801F06E
:100510003AFD33A001F0D8FD1F4801782B4801F0C7
:1005200003FE32A001F0D0FDA4E70000FFFF0F00A2
:10053000000C01405B0000005D2000000D0A5354D8
:100540004D33324631303352455436206973206F73
:100550006E6C696E652E0D0A0000000000080140F7
:1005600000380040003001406E524632344C303189
:100570002B20636865636B3A200000004641494CBC
:100580000D0A00004F4B0D0A00000000832A0008EE
:10059000862A0008040000200D0000200000002032
:1005A000380000200E0000204F4B000054494D45FC
:1005B0004F5554004D41582052455452414E534DD1
:1005C000495400004552524F52000000580000208C
:1005D0000C00002052435620504950452300000093
:1005E000205041594C4F41443A3E00003C0D0A0016
:1005F000704700BFFEE700BFFEE700BFFEE700BF99
:10060000FEE7704770477047704770477047704704
:100610007047704770477047704770477047704722
:100620007047704770477047704770477047704712
:100630007047704770477047704770477047704702
:1006400070477047704770477047704770477047F2
:1006500070477047704770477047704770477047E2
:1006600070477047704770477047704770477047D2
:1006700070477047704770477047704770477047C2
:100680007047000010B50446CC48844208D10121CF
:10069000042000F02DFB0021042000F029FB46E09F
:1006A000C748844208D10121082000F021FB002125
:1006B000082000F01DFB3AE0C248844208D1012125
:1006C000102000F015FB0021102000F011FB2EE09F
:1006D000BD48844208D10121202000F009FB0021FF
:1006E000202000F005FB22E0B848844208D1012117
:1006F000402000F0FDFA0021402000F0F9FA16E059
:10070000B348844208D10121802000F0F1FA002191
:10071000802000F0EDFA0AE0AE48844207D10121C2
:10072000801500F0E5FA0021A01500F0E1FA10BDF7
:1007300010B50121084600F0DBFA0021012000F08D
:10074000D7FA10BD2DE9F041024600250026002011
:1007500000230024002791F803C00CF00F0591F846
:1007600003C00CF0100CBCF1000F03D091F802C0D4
:100770004CEA050591F800C0BCF1000F31D01468B7
:1007800000202BE04FF0010C0CFA00F3B1F800C090
:100790000CEA03069E4220D183004FF00F0C0CFAA6
:1007A00003F7BC4305FA03FC4CEA040491F803C0C8
:1007B000BCF1280F06D14FF0010C0CFA00FCC2F876
:1007C00014C00AE091F803C0BCF1480F05D14FF006
:1007D000010C0CFA00FCC2F810C0401C0828D1D350
:1007E0001460B1F800C0BCF1FF0F34DD5468002084
:1007F0002EE000F1080C4FF0010808FA0CF3B1F8F4
:1008000000C00CEA03069E4221D183004FF00F0C7A
:100810000CFA03F7BC4305FA03FC4CEA040491F814
:1008200003C0BCF1280F05D100F1080C08FA0CF840
:10083000C2F8148091F803C0BCF1480F07D100F151
:10084000080C4FF0010808FA0CF8C2F81080401CA0
:100850000828CED35460BDE8F0814FF6FF710180C7
:10086000022181700421C170704702460020936804
:100870000B400BB1012000E0002070470146886862
:1008800080B2704702460020D3680B400BB10120B4
:1008900000E0002070470146C86880B270470161DF
:1008A0007047416170470AB1016100E041617047E2
:1008B000C16070474FF480320A4382618161826176
:1008C00082698269704702460020434B18684FF6E0
:1008D0008073184040EA021008433F4B186070478D
:1008E0003E49C8617047F0B50A4600230024002144
:1008F000002500F00046B6F1004F02D1364EF169F6
:1009000001E0354E7168C0F3034583B200F4401630
:10091000B6F5401F08D121F070612F4E766826F0A1
:1009200070662D4F7E6012E000F48016B6F5801FD1
:1009300006D1032606FA05F4A14341F0706106E0F2
:10094000460D360103FA06F6B14341F0706122B15B
:10095000460D360103FA06F6314300F00046B6F1C3
:10096000004F02D11C4EF16101E01B4E7160F0BDE1
:1009700030B500228B071C0F0F2303FA04F2164B2D
:1009800008338C1053F824309343134C08348D10E3
:1009900044F8253023468C1053F824308C07240F5C
:1009A00000FA04F423430C4C08348D1044F825302D
:1009B00030BD0A49DC310860704700000008014082
:1009C000000C0140001001400014014000180140DB
:1009D000001C0140002001400000014000002042B6
:1009E000DF48006840F00100DD49086008464068C3
:1009F000DC490840DA49486008460068DA4908409E
:100A0000D74908600846006820F48020086008463E
:100A1000406820F4FE0048604FF41F008860704773
:100A2000CF49096821F48031CD4A11601146096827
:100A300021F480211160B0F5803F03D0B0F5802F04
:100A40000ED106E0C649096841F48031C44A1160FC
:100A500007E0C349096841F4A021C14A116000E0E0
:100A600000BF00BF704710B50146002200230020E0
:100A70004A11012A02D1BA4C236806E0022A02D1A7
:100A8000B74C236A01E0B64C636A01F01F020124EF
:100A900094401C400CB1012000E0002010BD38B58E
:100AA000002000900024002500BF3120FFF7DBFF6D
:100AB00005460098401C00900098B0F5A06F01D04A
:100AC000002DF2D03120FFF7CEFF08B1012400E065
:100AD0000024204638BD01460020A14A106820F0BD
:100AE000F80040EAC10010607047A04908607047F4
:100AF000024600209A4B586820F47C1042EA010319
:100B00001843974B586070479849086670470146EC
:100B10000020934A506820F003000843506070475B
:100B20008F48406800F00C007047014600208C4A56
:100B3000506820F0F00008435060704701460020E4
:100B4000874A506820F4E0600843506070470146CF
:100B50000020834A506820F4605040EAC100506091
:100B6000704729B17E4A527A02437D4B5A7204E0A3
:100B70007B4A527A82437A4B5A7270477B49D8310A
:100B80000860704701460020754A506820F44040D4
:100B90000843506070470021714A20321170704A3A
:100BA00082F82010012802D004280AD104E0012193
:100BB0006B4A2032117005E00521694A203211701C
:100BC00000E000BF00BF7047694908607047644992
:100BD000096A0143624A11627047654944390860F5
:100BE000704730B500210022002400235C4D6D6861
:100BF00005F00C0121B1042905D0082923D105E015
:100C00005C4D056022E05B4D05601FE0544D6D6852
:100C100005F47012524D6D6805F48034022505EB21
:100C200092421CB9544D554305600BE04C4D6D6824
:100C300005F400351DB1504D5543056002E04D4DA2
:100C40005543056002E04B4D056000BF00BF444DB9
:100C50006D6805F0F0010909484D6B5C0568DD40E1
:100C600045603F4D6D6805F4E061090A434D6B5CDA
:100C70004568DD4085603A4D6D6805F46051C90AEC
:100C80003E4D6B5C4568DD40C560354D6D6805F4D3
:100C90004041890B3A4D6B5CC568B5FBF3F50561C6
:100CA00030BD29B12E4A526902432D4B5A6104E0EE
:100CB0002B4A526982432A4B5A61704729B1284A0C
:100CC00092690243264B9A6104E0254A9269824365
:100CD000234B9A61704729B1214AD2690243204BC4
:100CE000DA6104E01E4AD26982431D4BDA61704723
:100CF00029B11B4AD2680243194BDA6004E0184A52
:100D0000D2688243164BDA60704729B1144A1269DF
:100D10000243134B1A6104E0114A12698243104BDB
:100D20001A61704712494039086070470F49C8641A
:100D300070470B49C87170470948406A40F080709D
:100D400007494862704701460020054A92680A40F8
:100D50000AB1012000E00020704701498872704705
:100D6000001002400000FFF8FFFFF6FE00004242C4
:100D70008004424200127A0000093D000F0000206A
:100D80001F00002010B50446FB48844209D1012110
:100D90008803FFF7ADFF00214FF48040FFF7A8FF65
:100DA00032E0F648844209D101214804FFF7ADFF43
:100DB00000214FF40030FFF7A8FF25E0F0488442FF
:100DC00009D101218804FFF7A0FF00214FF4802002
:100DD000FFF79BFF18E0EB48844209D10121C804CA
:100DE000FFF793FF00214FF40020FFF78EFF0BE089
:100DF000E548844208D101210805FFF786FF00215C
:100E00004FF48010FFF781FF10BD2DE9F04786B049
:100E100005460E460024A24600BFA1460027B08921
:100E200000B100BF2F462C8A4CF6FF700440F088BA
:100E300004432C82AC894EF6F3100440B08831890B
:100E40000843718908430443AC81AC8A4FF6FF40E4
:100E50000440B0890443AC8201A8FFF7C2FEC64833
:100E6000874202D1DDF810A001E0DDF80CA0A889CE
:100E700000F4004040B10AEBCA0000EB0A103168F0
:100E80004900B0FBF1F807E00AEBCA0000EB0A10DA
:100E900031688900B0FBF1F86420B8FBF0F0040180
:100EA0002009642101FB1089A88900F4004040B1A9
:100EB000322000EBC900B0FBF1F000F00700044362
:100EC00008E0322000EB09106421B0FBF1F000F0E3
:100ED0000F0004432C8106B0BDE8F0874FF4165193
:100EE000016000218180C18001810C2141810021AC
:100EF0008181704710B502460020108A4FF2FF032F
:100F000018400B884C8823438C882343CC88234388
:100F10001843108210BD0021018041808180C18072
:100F2000704721B1828942F40052828104E08289B3
:100F30004DF6FF731A4082817047F0B503460024D6
:100F400000260025002040F66A17B94200D100BFF4
:100F50001846C1F3421401F01F06012707FA06F5EF
:100F6000012C01D10C3004E0022C01D1103000E042
:100F700014301AB107682F43076002E00768AF43D7
:100F80000760F0BD1AB1838A0B43838202E0838A33
:100F90008B4383827047028A4FF6F0731A400282B5
:100FA000028A0A430282704782894FF2FF731A4015
:100FB000828182890A438281704721B1828942F00D
:100FC0000202828104E082894FF6FD731A40828119
:100FD0007047028A4FF6DF731A400282028A0A4380
:100FE0000282704721B1028A42F48042028204E008
:100FF000028A4BF6FF731A4002827047C1F308025F
:101000008280704701468888C0F308007047818954
:1010100041F0010181817047028BD2B20283028BC1
:1010200042EA012202837047028B02F47F4202836C
:10103000028B0A430283704721B1828A42F0200268
:10104000828204E0828A4FF6DF731A408282704700
:1010500021B1828A42F01002828204E0828A4FF635
:10106000EF731A408282704721B1828A42F00802EF
:10107000828204E0828A4FF6F7731A4082827047B8
:1010800021B1828942F40042828103E08289C2F365
:101090000E028281704721B1828A42F4006282820C
:1010A00004E0828A4FF2FF731A4082827047828A7C
:1010B0004FF6FB731A408282828A0A43828270470B
:1010C00021B1828A42F00202828204E0828A4FF6D3
:1010D000FD731A408282704702460020B1F5007FFE
:1010E00000D100BF13880B400BB1012000E00020AD
:1010F000704701F40072B2F5007F00D100BFCA430F
:101100000280704770B502460024002300250020AD
:1011100040F66A16B14200D100BFC1F3421501F09A
:101120001F03012606FA03F3012D02D196893340ED
:1011300006E0022D02D1168A334001E0968A334040
:101140000C12012606FA04F41688344013B10CB1CF
:10115000012000E0002070BD10B50022002340F601
:101160006A14A14200D100BF0A1201249440A3B224
:10117000DC43048010BD0000003801400044004002
:1011800000480040004C00400050004010B50446AC
:10119000BE48844208D101218014FFF7A9FD002137
:1011A000A014FFF7A5FD16E0B948844208D101213B
:1011B0000014FFF7AAFD00212014FFF7A6FD0AE0A6
:1011C000B448844207D10121C013FFF79EFD0021DE
:1011D000E013FFF79AFD10BD10B50022028802F45B
:1011E00041520B884C8823438C882343CC8823436B
:1011F0000C8923434C8923438C892343CC89234383
:101200001A430280838B4FF2FF74234083830B8A3F
:10121000038210BD2DE9F04F85B005460C464FF016
:10122000000902274FF000084FF0010B0026B246DC
:10123000A88B4FF240010840A88302202884B5F80B
:101240001C90A068022801D100BF38E0A08810B926
:101250004FF0010B01E04FF0020B8D48854200D1A9
:1012600000E000BF6846FFF7BCFCDDF800A0E088A6
:10127000B0F5007F0AD14FEA1A2000EB8000400051
:10128000A168B0FBF1F0401D86B20BE04FEA4B10B5
:10129000BAFBF0F000EB80004000A168B0FBF1F079
:1012A000401D86B20A20B6FBF0F606F00108A6EB58
:1012B0000800C0F34F074FF6FF7000EA0828022F1E
:1012C00001DBFF2F02DD02274FF00008E08840EA33
:1012D000080038432884A088A1890843618808430E
:1012E0002188084340F4006040EA0909A5F81C90F1
:1012F00005B0BDE8F08F0021018041808180C18070
:10130000018141818181C1810721018270470021D2
:10131000018041808180C180022181600021818122
:10132000704721B1028842F04002028004E0028846
:101330004FF6BF731A400280704721B1828B42F48E
:101340008062828304E0828B4FF6FF331A408283EF
:10135000704730B5002400230C110125A540ABB225
:101360001AB185881D43858002E085889D4385806C
:1013700030BD1AB183880B43838002E083888B439E
:1013800083807047818170470146888970474FF696
:10139000FF62914204D0028842F48072028004E02D
:1013A00002884FF6FF631A400280704721B182889D
:1013B00042F00402828004E082884FF6FB731A40F8
:1013C0008280704702884FF2FF731A4002800288C1
:1013D0000A4302807047018841F4805101807047C0
:1013E00021B1028842F40052028004E002884DF6E6
:1013F000FF731A400280704702460020012901D085
:10140000108B00E0908A70470146088A7047B1F55A
:10141000804F04D1028842F48042028004E00288B6
:101420004BF6FF731A400280704702460020138972
:101430000B400BB1012000E000207047CA4302813D
:101440007047F0B50246002000240023002501F07B
:101450000F070126BE40B4B20B1101269E40B3B265
:10146000968806EA03051689264016B10DB10120BB
:1014700000E00020F0BD10B5002201F00F040123B0
:10148000A3409AB2D343038110BD00000030014055
:1014900000380040003C004070B504464FF48051D5
:1014A000F748FFF7FEF904F01F0000F0E4FCFF200E
:1014B00000F0E1FC05464FF48051F148FFF7EFF9E9
:1014C000284670BD70B504461021EE48FFF7E9F9D3
:1014D00004F01F0000F0E8FCFF2000F0E5FC0546EA
:1014E0001021E848FFF7DBF9284670BD70B50446C7
:1014F0000D464FF48051E248FFF7D3F9202C09DA6A
:1015000004F01F0141F0200000F0B5FC284600F077
:10151000B2FC0DE0204600F0AEFCE12C08D0E22C3D
:1015200006D0E32C04D0FF2C02D0284600F0A3FC08
:101530004FF48051D248FFF7B2F970BD70B5044640
:101540000D461021CF48FFF7ACF9202C09DA04F042
:101550001F0141F0200000F0A7FC284600F0A4FC89
:101560000DE0204600F0A0FCE12C08D0E22C06D0D3
:10157000E32C04D0FF2C02D0284600F095FC10216B
:10158000C048FFF78CF970BD70B506460C4615468D
:101590004FF48051BA48FFF784F9304600F06BFCF5
:1015A00004E0FF2000F067FC04F8010B281EA5F101
:1015B0000101CDB2F5D14FF48051B148FFF76FF979
:1015C00070BD70B506460C4615461021AD48FFF7B4
:1015D00068F9304600F068FC04E0FF2000F064FC8D
:1015E00004F8010B281EA5F10101CDB2F5D110219F
:1015F000A448FFF754F970BD70B506460C46154671
:101600004FF480519E48FFF74CF9304600F033FC10
:1016100003E014F8010B00F02EFC281EA5F10101D7
:10162000CDB2F6D14FF480519548FFF738F970BD2F
:1016300070B506460C46154610219248FFF731F961
:10164000304600F031FC03E014F8010B00F02CFCF4
:10165000281EA5F10101CDB2F6D110218948FFF76E
:101660001EF970BD10B50720FFF716FF044644F0C1
:10167000700421460720FFF739FF10BD10B5FF2188
:10168000E120FFF733FF10BD10B5FF21E220FFF787
:101690002DFF10BD10B508210020FFF727FF3F21C7
:1016A0000120FFF723FF03210220FFF71FFF032183
:1016B0000846FFF71BFF03210420FFF717FF022155
:1016C0000520FFF713FF0E210620FFF70FFF002173
:1016D0000720FFF70BFF00211120FFF707FF002174
:1016E0001220FFF703FF00211320FFF7FFFE002168
:1016F0001420FFF7FBFE00211520FFF7F7FE002165
:101700001620FFF7F3FE00211C20FFF7EFFE00215B
:101710001D20FFF7EBFEFFF7B7FFFFF7AFFFFFF767
:10172000A1FF4FF480515648FFF7B9F810BD10B52E
:1017300008210020FFF7DAFE3F210120FFF7D6FE47
:1017400003210220FFF7D2FE03210846FFF7CEFE59
:1017500003210420FFF7CAFE02210520FFF7C6FE81
:101760000E210620FFF7C2FE00210720FFF7BEFE74
:1017700000211120FFF7BAFE00211220FFF7B6FE6C
:1017800000211320FFF7B2FE00211420FFF7AEFE68
:1017900000211520FFF7AAFE00211620FFF7A6FE64
:1017A00000211C20FFF7A2FE00211D20FFF79EFE56
:1017B000FFF76AFFFFF762FFFFF754FF1021314880
:1017C000FFF76DF810BD7CB52FA505222946302006
:1017D000FFF712FF052269461020FFF7D5FE00240F
:1017E00009E015F8011B1DF80400814201D000201A
:1017F0007CBD601CC4B2052CF3DB0120F8E77CB58E
:1018000021A5052229463020FFF712FF052269464F
:101810001020FFF7D6FE002409E015F8011B1DF883
:101820000400814201D000207CBD601CC4B2052CA4
:10183000F3DB0120F8E770B505460020FFF72CFE2A
:101840000446022D02D144F0020401E024F0020417
:1018500021460020FFF74AFE70BD70B50546002006
:10186000FFF730FE0446022D02D144F0020401E0ED
:1018700024F0020421460020FFF760FE70BD000046
:10188000000C0140000801406E5246323400000056
:1018900070B505460020FFF7FFFD044624F0010463
:1018A00005F00100044321460020FFF71FFE70BD34
:1018B00070B505460020FFF705FE044624F001043C
:1018C00005F00100044321460020FFF737FE70BDFC
:1018D00070B505460020FFF7DFFD044624F00C0438
:1018E00005F00C00044321460020FFF7FFFD70BD0A
:1018F00070B505460020FFF7E5FD044624F00C0412
:1019000005F00C00044321460020FFF717FE70BDD0
:1019100010B5044621460520FFF7E8FD10BD10B5BF
:10192000044621460520FFF709FE10BD70B50446A8
:101930000D46284664F31F10C1B20420FFF7D6FD00
:1019400070BD70B504460D46284664F31F10C1B241
:101950000420FFF7F3FD70BD10B50446A01EC1B210
:101960000320FFF7C3FD10BD10B50446A01EC1B291
:101970000320FFF7E3FD10BD70B504460D46072CAC
:1019800031D2DFE804F005062728292A040000BF29
:1019900000BF0320FFF780FD401CC6B235444FF462
:1019A0008051FA48FEF77DFFF949095D41F02000BA
:1019B00000F061FA00BF15F8010900F05CFA301E72
:1019C000A6F10101CEB2F6D14FF48051EF48FEF7F7
:1019D00066FF09E000BF00BF00BF2978EC4A105D38
:1019E000FFF784FD00E000BF00BF70BD70B5044686
:1019F0000D46072C2FD2DFE804F005062526272800
:101A0000040000BF00BF0320FFF75CFD401CC6B20E
:101A100035441021DF48FEF744FFDD49095D41F000
:101A2000200000F041FA00BF15F8010900F03CFA6F
:101A3000301EA6F10101CEB2F6D11021D548FEF735
:101A40002EFF09E000BF00BF00BF2978D04A105D1B
:101A5000FFF774FD00E000BF00BF70BD70B5054624
:101A60000620FFF719FD044624F006042C43214606
:101A70000620FFF73BFD70BD70B505460620FFF759
:101A800021FD044624F006042C4321460620FFF7DE
:101A900055FD70BD70B505460620FFF7FDFC0446F8
:101AA00024F028042C4321460620FFF71FFD70BDBB
:101AB00070B505460620FFF705FD044624F028040E
:101AC0002C4321460620FFF739FD70BD2DE9F0417A
:101AD00004460E4617460220FFF7DEFC0121A14016
:101AE000084300F03F0529460220FFF7FFFC07F0FE
:101AF0003F01A94A105DFFF7F9FC0120FFF7CCFC7C
:101B00000546012E04D10120A0402843C5B202E0C1
:101B10000120A040854329460120FFF7E7FCBDE8EE
:101B2000F0812DE9F04104460E4617460220FFF7EA
:101B3000C9FC0121A140084300F03F0529460220CD
:101B4000FFF7FCFC07F03F01934A105DFFF7F6FC3E
:101B50000120FFF7B7FC0546012E04D10120A0406B
:101B60002843C5B202E00120A04085432946012058
:101B7000FFF7E4FCBDE8F08170B505460220FFF7F1
:101B80008BFC04460120A840844304F03F04214616
:101B90000220FFF7ABFC70BD70B505460220FFF7D1
:101BA00091FC04460120A840844304F03F042146F0
:101BB0000220FFF7C3FC70BD70B504460120FFF79B
:101BC0006BFC05460120A0402843C5B229460120F0
:101BD000FFF78CFC70BD70B504460120FFF772FC66
:101BE00005460120A0402843C5B229460120FFF741
:101BF000A5FC70BD70B50446052C04DD0021012054
:101C0000FFF774FC0AE00120FFF746FC05460120BF
:101C1000A040854329460120FFF768FC70BD70B5E0
:101C20000446052C04DD00210120FFF787FC0AE0B3
:101C30000120FFF747FC05460120A04085432946C7
:101C40000120FFF77BFC70BD10B50720FFF724FCD7
:101C500010BD10B50720FFF735FC10BD10B50720EB
:101C6000FFF71AFC00F0700010BD10B50720FFF759
:101C700029FC00F0700010BD10B51720FFF70CFC18
:101C800000F0030010BD10B51720FFF71BFC00F09B
:101C9000030010BD10B51720FFF7FEFBC0F30110C5
:101CA00010BD10B51720FFF70DFCC0F3011010BDDB
:101CB00010B50720FFF7F0FBC0F3420010BD10B5D0
:101CC0000720FFF7FFFBC0F3420010BD10B508204E
:101CD000FFF7E2FB10BD10B50820FFF7F3FB10BDC6
:101CE00010B50520FFF7D8FB044621460520FFF775
:101CF000FDFB10BD10B50520FFF7E4FB04462146AF
:101D00000520FFF71BFC10BD10B5FF21E120FFF7F8
:101D100015FC10BD10B5FF21E220FFF70FFC10BD30
:101D200010B50720FFF7CEFB044644F070042146AF
:101D30000720FFF703FC10BD70B504460D462A4688
:101D40002146A020FFF758FC70BD70B504460D4633
:101D50002A462146A020FFF76BFC70BD70B50646F1
:101D60000C460720FFF798FBC0F34205062D15DA55
:101D70000949485DFFF790FB2070207820B1227858
:101D800031466120FFF700FC284670BD000C014081
:101D90008F2A000800080140892A000800202070CE
:101DA000FF20F2E770B506460C460720FFF78AFBD6
:101DB000C0F34205062D0DDA0849485DFFF782FBA6
:101DC0002070207820B1227831466120FFF7F9FB9E
:101DD000284670BD00202070FF20FAE7892A0008FD
:101DE00008B53E48806940F008003C4988611020F1
:101DF0008DF8030002208DF80200C002ADF800004B
:101E000069463748FEF79EFC4FF480513448FEF790
:101E100046FD4FF40060ADF8000069463048FEF71B
:101E200091FC4FF400612E48FEF73BFD08BD08B55C
:101E30002A48806940F008002849886110208DF800
:101E4000030002208DF802001020ADF80000694662
:101E50002448FEF777FC10212248FEF720FD0220DF
:101E6000ADF8000069461E48FEF76CFC02211C48D4
:101E7000FEF717FD08BD10B5044600BF02211A4841
:101E8000FFF7D3FA0028F9D021461748FFF77AFA6E
:101E900000BF01211448FFF7C8FA0028F9D0124802
:101EA000FFF772FAC0B210BD10B5044600BF0221A0
:101EB0000E48FFF7BAFA0028F9D021460B48FFF781
:101EC00061FA00BF01210948FFF7AFFA0028F9D0F5
:101ED0000648FFF759FAC0B210BD000000100240DA
:101EE000000C014000080140003800400030014073
:101EF00010B586B0044601210420FEF7DFFE012163
:101F00004804FEF7E8FE0420ADF8140003208DF825
:101F1000160018208DF8170005A9BF48FEF712FC1F
:101F20000820ADF8140003208DF8160004208DF869
:101F3000170005A9B848FEF705FC01940020ADF88C
:101F400010000C20ADF80E000020ADF80800ADF830
:101F50000C00ADF80A0001A9B048FEF756FF0121B8
:101F6000AE48FEF7DEFF06B010BD10B5044600BF58
:101F70004021AA48FFF7B0F80028F9D02146A74829
:101F8000FFF73CF810BD3EB504460025002C03DAEF
:101F90002D20FFF7EAFF644200BF0A2094FBF0F116
:101FA00000FB11403030C2B228466D1C0DF80020F5
:101FB0000A2094FBF0F0041EEFDC6D1E04E01DF817
:101FC0000500FFF7D2FF6D1E002DF8DA3EBD3EB5CD
:101FD00004460025002C03DA2D20FFF7C6FF6442DB
:101FE0000A2C04DA002C02DB3020FFF7BEFF00BF12
:101FF0000A2094FBF0F100FB11403030C2B22846B9
:102000006D1C0DF800200A2094FBF0F0041EEFDC9C
:102010006D1E04E01DF80500FFF7A7FF6D1E002DE3
:10202000F8DA3EBD70B504462511E91705EB1171CC
:102030000911A5EB01117AA2505CFFF796FF04F09D
:102040000F05E91705EB11710911A5EB011174A238
:10205000505CFFF78AFF70BD70B504460C250DE09B
:1020600044FA05F6F11706EB11710911A6EB0111FF
:102070006BA2505CFFF779FF281FC5B2002DEFDC83
:1020800004F00F06F11706EB11710911A6EB01110F
:1020900063A2505CFFF769FF70BD70B504461C2554
:1020A00009E024FA05F101F00F015DA2505CFFF791
:1020B0005CFF281FC5B2002DF3DC04F00F0158A20D
:1020C000505CFFF752FF70BD10B5044603E014F8F2
:1020D000010BFFF74AFF20780028F8D110BD70B53A
:1020E00004460D46002605E014F8010BFFF73DFFFE
:1020F000701C86B2AE42F7DB70BD2DE9F04104469C
:102100000D46904600260BE014F8017B202F01DDE0
:10211000394600E041460846FFF727FF701C86B2AB
:10212000AE42F1DBBDE8F0812DE9F04104460F46F7
:102130004FF000081CE014F8015B2E11F11706EBBC
:1021400011710911A6EB011135A2505CFFF70DFFCB
:1021500005F00F06F11706EB11710911A6EB01113D
:102160002FA2505CFFF701FF08F101001FFA80F871
:10217000B845E0DBBDE8F0812DE9F84F82460F4617
:1021800090469B46CDF80080009800F06FFA054617
:1021900000243AE02046FFF75FFF3A20FFF7E5FE14
:1021A0002020FFF7E2FE04EB0800B84203DB381BF7
:1021B0001FFA80F900E0C1460AEB04014A462846AE
:1021C00000F0AAFA002605E03146721C96B2685C5F
:1021D000FFF728FF4E45F7DB2020FFF7C6FE00265D
:1021E00000BFA95D202901DDA95D00E05946084630
:1021F000FFF7BBFE701C80B206464845F1DB0A20A3
:10220000FFF7B3FE04EB090084B2BC42C2DB2846F0
:1022100000F05BFABDE8F88F000801400044004080
:10222000303132333435363738394142434445460C
:102230000000000010B5194800684FF47A71B0FB37
:10224000F1F0401E4FF0E021486148170F210028AF
:1022500007DA0A07140E124A00F00F031B1FD454AA
:1022600003E00A07130E0F4A135400BF00204FF07B
:10227000E02188610520086110BD08B5009008E0E4
:102280004FF0E021096901F4803111B10099491E34
:10229000009100990029F3D108BD0000240000201E
:1022A00018ED00E000E400E00CB500200190009083
:1022B0006C48006840F480306A49086000BF694893
:1022C000006800F4003000900198401C01900098D4
:1022D00018B90198B0F5A06FF1D16248006800F418
:1022E000003010B10120009001E000200090009823
:1022F000012843D15C48006840F010005A4908604A
:102300000846006820F0030008600846006840F0B6
:1023100002000860534840685249486008464068D7
:1023200048600846406840F480604860084640685D
:1023300020F47C1048600846406840F4E81048608B
:102340000846006840F08070086000BF454800689B
:1023500000F000700028F9D04248406820F00300E7
:10236000404948600846406840F00200486000BFAD
:102370003C48406800F00C000828F9D10CBD10B5AD
:10238000FFF792FF10BD10B53648006840F001001D
:10239000344908600846406834490840314948607B
:1023A00008460068324908402E490860084600681F
:1023B00020F4802008600846406820F4FE00486051
:1023C0004FF41F008860FFF7DAFF4FF000602949E3
:1023D000086010BD10B5002100200022214B5B6871
:1023E00003F00C0121B1042906D0082928D107E007
:1023F000214B224C236027E01F4B204C236023E01D
:10240000184B5B6803F47010164B5B6803F4803262
:10241000022303EB904022B9194B4343174C23602E
:102420000DE0104B5B6803F4003323B1144B4343BE
:10243000124C236003E0104B4343104C236003E035
:102440000D4B0E4C236000BF00BF064B5B68C3F30F
:1024500003130C4CE15C094B1B68CB40074C236019
:1024600010BD000000100240002002400000FFF8F4
:10247000FFFFF6FE08ED00E000127A0024000020C5
:1024800000093D002800002009488047094800470E
:10249000FEE7FEE7FEE7FEE7FEE7FEE7FEE7FEE714
:1024A000FEE7FEE704480549054A064B7047000071
:1024B00087230008ED000008D8000020D80600207F
:1024C000D8020020D80200204FF0FF3000BE704735
:1024D00000BE704770B504460D4614B94FF0FF308A
:1024E00070BD20783A281AD15AA1204600F05AF936
:1024F00010B948F20100F3E758A1204600F052F964
:1025000010B948F20200EBE756A1204600F04AF964
:1025100010B948F20300E3E74FF0FF30E0E74FF077
:10252000FF30DDE701466FF40040084420B1012888
:1025300004D0022806D103E0002070470020FCE709
:102540000020FAE74FF0FF30F7E72DE9F0410646AB
:102550000C46154698466FF40040304420B10128DF
:1025600006D0022811D10EE04FF0FF30BDE8F08117
:1025700005E014F8017B3846FFF7AAFF6D1E002D19
:10258000F7D10020F2E70020F0E74FF0FF30EDE751
:102590002DE9F04107460E46144698466FF4004078
:1025A000384420B1012810D0022814D110E0FFF7E0
:1025B0008BFF0546002D03DA44F00040BDE8F081B2
:1025C00006F8015B641E2046F8E74FF0FF30F5E7A0
:1025D0004FF0FF30F2E74FF0FF30EFE700BE7047FB
:1025E00001466FF40040084420B1012804D00228BD
:1025F00006D103E0012070470120FCE70120FAE743
:102600000020F8E702466FF40040104420B1012892
:1026100005D0022809D105E04FF0FF3070474FF098
:10262000FF30FBE74FF0FF30F8E74FF0FF30F5E702
:1026300001466FF40040084420B1012804D002286C
:1026400006D103E0002070470020FCE70020FAE7F5
:102650000020F8E73A535444494E00003A5354449A
:102660004F5554003A5354444552520070B50646F3
:1026700000F0DCF8056806F10B0020F00704B44216
:102680009CBF002070BD2B466A68BAB11068A0429A
:1026900010D304F1080188423CBF5068586007D34A
:1026A0005168101941601168091B0160586014607D
:1026B000101D70BD13465268002AE7D121462846F6
:1026C00000F0BCF80028DED170BD70B50446051FCF
:1026D00000F0ACF80068002C14BF446870BD002CFA
:1026E00018BFAC423CBF20466468F8D301680A18A2
:1026F000AA4218BF456003D12A680546114401600B
:1027000028684119A1421CBF6C6070BD6168696096
:1027100021680844286070BD032A40F2308010F020
:10272000030C00F0158011F8013BBCF1020F62446C
:1027300098BF11F801CB00F8013B38BF11F8013BFD
:10274000A2F1040298BF00F801CB38BF00F8013BAA
:1027500011F0030300F0BC80083AC0F0088051F883
:10276000043B083A51F804CBA0E80810F5E7121D25
:102770005CBF51F8043B40F8043BAFF30080D20744
:1027800024BF11F8013B11F801CB48BF11F8012B10
:1027900024BF00F8013B00F801CB48BF00F8012B33
:1027A000704700004FF0013C50F8042B51F8043BF7
:1027B0009A4221D1A2EB0C03934313EACC1317D115
:1027C00050F8042B51F8043B9A4215D1A2EB0C03AC
:1027D000934313EACC130BD150F8042B51F8043B6C
:1027E0009A4209D1A2EB0C03934313EACC13DBD03A
:1027F0004FF00000704700BFD01A01BAB1FA81F162
:1028000001F0180122FA01F0CB40C1F12001DBB246
:10281000C0B2C01A2CFA01F3D11A914311EAC311C4
:10282000E6D1704770477047704700000048704716
:1028300080000020704770477047704738B50446E5
:102840000A4600206946AFF30080002808BF38BD63
:1028500002460099204600F071F8012038BD0120A1
:1028600000F086B8F8B5AFF30080054600200C46AE
:10287000102000BF0646A819A0420DD9324669466D
:102880000020AFF30080070008BF00F071F8009847
:10289000A04218BF0546C419FFF7C8FF05600746E8
:1028A000F01D20F007004619284600F00AF8B4424F
:1028B00008BFF8BDA21B31463868BDE8F84000F0FB
:1028C0003DB800210160C0E9011070471020704739
:1028D00010B5203AC0F00B80B1E81850203AA0E8BB
:1028E0001850B1E81850A0E81850BFF4F5AF5FEAEF
:1028F000027C24BFB1E81850A0E8185044BF18C9A2
:1029000018C0BDE810405FEA827C24BF51F8043B48
:1029100040F8043B08BF7047D20728BF31F8023B9C
:1029200048BF11F8012B28BF20F8023B48BF00F830
:10293000012B70470048704778000020034640682C
:102940008C46002818BF88423CBF03464068F8D335
:1029500018681844884207D00CF1030020F00700E3
:10296000001D411A521A0146081D0A60FFF7ADBE4C
:1029700010B500F039F8BDE8104000F02FB87047EE
:102980007546FFF7D7FFAE4605006946534620F06F
:102990000700854618B020B5FFF784FDBDE820404C
:1029A0004FF000064FF000074FF000084FF0000B0B
:1029B00021F00701AC46ACE8C009ACE8C009ACE8BE
:1029C000C009ACE8C0098D46704710B50446AFF3A6
:1029D00000802046BDE81040FDF7D3BB002801D0A1
:1029E00000F02AB87047000010B5012805D000217A
:1029F00003A000F027F8012010BD09A1F8E70000AE
:102A000053494752544D454D3A204F7574206F66D7
:102A10002068656170206D656D6F7279000000003F
:102A20003A2048656170206D656D6F727920636F23
:102A3000727275707465640001491820ABBEFEE7C0
:102A40002600020070B505460C460A2000E06D1C09
:102A5000FFF7C4FD35B128780028F8D102E0641CE6
:102A6000FFF7BCFD14B120780028F8D1BDE8704014
:102A70000A20FFF7B3BD1112131415160A0B0C0D23
:102A80000E0F10E71CE3E61BE21112131415160AD1
:102A90000B0C0D0E0F100000B82A000800000020DB
:102AA0003800000028010008F02A00083800002043
:102AB000A006000044010008000000000000000023
:102AC00000000000000000000000000102030401FB
:102AD00002030406070809020406080000A24A04CB
:102AE00000000000000000000102030406070809BE
:04000005080000ED02
:00000001FF
